:020000040000fa
:080000000020040000000000d4
:020000040000fa
:100008000c3000000c3000000c3000000c300000f8
:100018000c3000000c3000000c3000000c300000e8
:100028000c3000000c3000000c3000000c300000d8
:100038000c3000000c3000000c3000000c300000c8
:100048000c3000000c3000000c3000000c300000b8
:100058000c3000000c3000000c3000000c300000a8
:100068000c3000000c3000000c3000000c30000098
:100078000c3000000c3000000c3000000c30000088
:100088000c3000000c3000000c3000000c30000078
:100098000c3000000c3000000c3000000c30000068
:1000a8000c3000000c3000000c3000000c30000058
:1000b8000c3000000c3000000c3000000c30000048
:1000c8000c3000000c3000000c3000000c30000038
:1000d8000c3000000c3000000c3000000c30000028
:1000e8000c3000000c3000000c3000000c30000018
:1000f8000c3000000c3000000c3000000c30000008
:100108000c3000000c3000000c3000000c300000f7
:100118000c3000000c3000000c3000000c300000e7
:100128000c3000000c3000000c3000000c300000d7
:100138000c3000000c3000000c3000000c300000c7
:100148000c3000000c3000000c3000000c300000b7
:100158000c3000000c3000000c3000000c300000a7
:100168000c3000000c3000000c3000000c30000097
:100178000c3000000c300000d22f00000c300000c2
:100188000c3000000c3000000c3000000c30000077
:100198000c3000000c3000000c3000000c30000067
:1001a8000c3000000c3000000c3000000c30000057
:1001b8000c3000000c3000000c3000000c30000047
:1001c8000c3000000c3000000c3000000c30000037
:1001d8000c3000000c3000000c3000000c30000027
:1001e8000c3000000c3000000c3000000c30000017
:0801f8000c3000000c30000087
:020000040000fa
:100208000c3000000c3000000c3000000c300000f6
:100218000c3000000c3000000c3000000c300000e6
:100228000c3000000c3000000c3000000c300000d6
:100238000c3000000c3000000c3000000c300000c6
:100248000c3000000c3000000c3000000c300000b6
:100258000c3000000c3000000c3000000c300000a6
:100268000c3000000c3000000c3000000c30000096
:100278000c3000000c3000000c3000000c30000086
:100288000c3000000c3000000c3000000c30000076
:100298000c3000000c3000000c3000000c30000066
:1002a8000c3000000c3000000c3000000c30000056
:1002b8000c3000000c3000000c3000000c30000046
:1002c8000c3000000c3000000c3000000c30000036
:1002d8000c3000000c3000000c3000000c30000026
:1002e8000c3000000c3000000c3000000c30000016
:1002f8000c3000000c3000000c3000000c30000006
:100308000c3000000c3000000c3000000c300000f5
:100318000c3000000c3000000c3000000c300000e5
:100328000c3000000c3000000c3000000c300000d5
:100338000c3000000c3000000c3000000c300000c5
:100348000c3000000c3000000c3000000c300000b5
:100358000c3000000c3000000c3000000c300000a5
:100368000c3000000c3000000c3000000c30000095
:100378000c3000000c300000d22f00000c300000c0
:100388000c3000000c3000000c3000000c30000075
:100398000c3000000c3000000c3000000c30000065
:1003a8000c3000000c3000000c3000000c30000055
:1003b8000c3000000c3000000c3000000c30000045
:1003c8000c3000000c3000000c3000000c30000035
:1003d8000c3000000c3000000c3000000c30000025
:1003e8000c3000000c3000000c3000000c30000015
:0803f8000c3000000c30000085
:020000040000fa
:104000000fa320000e7f24000e0188000000000096
:1040100000012000200288000c00070020ff220081
:104020000100200011000700000020000000e00057
:10403000020032000000020000000000ac2f02006d
:10404000000000000040da000000fe004440a9002b
:10405000a00c20000000e00003003200000020005f
:10406000a00188004440a8000000060091018800db
:10407000800078000000eb0015003700e28040006f
:1040800032a0b4009101ba00e280400032a0b40036
:104090009102ba00e280400032a0b4000002eb00be
:1040a000472bde00f507b200602ce10004003a0067
:1040b0000059eb008301e900fdff3e0004003700da
:1040c0006128e100010032000082eb0004000700db
:1040d0001101ba000200e000e8ff3a00000006000b
:1040e0003159ba008301e9000c0032002159ba00ad
:1040f0008301e900080032000400e00003003a00f8
:10410000e280400032a0b400f5ff370011d9ba00b8
:104110008301e900faff3a008100e800e1804000f5
:1041200032a0b40000000600000278000200370050
:10413000015a78000201e900e00f5100fcff3a004b
:044140000000060075
:020000040000fa
:10414400120100000002000002000000000800004c
:10415400d80400000a000000000100000102000071
:1041640000010000090200004300000002010000f9
:1041740000c000003209000004000000000100003b
:1041840002020000010000000524000000100000ed
:1041940001040000240200000205000024060000bf
:1041a40000010000052400000100000001070000d8
:1041b400058100000308000000020000090400005b
:1041c40001000000020a00000000000000070000d7
:1041d4000502000002400000000000000705000086
:1041e4008202000040000000000000000403000000
:1041f40009040000340300004400000061000000d2
:104204006e000000670000006500000072000000fe
:104214006f00000075000000730000002000000023
:1042240050000000720000006f00000074000000e5
:104234006f000000740000007900000070000000ae
:104244006500000073000000200000003200000040
:10425400300000003100000034000000340300008e
:1042640042000000750000007300000050000000d0
:10427400690000007200000061000000740000008a
:10428400650000002000000056000000340000001b
:104294002e0000007800000020000000280000002c
:1042a400430000002900000044000000500000000a
:1042b4003200000030000000310000003400000033
:1042c40020000000b4a00000f8a00000fca0000042
:0442d40030a1000015
:020000040000fa
:1042d8000080fb008182fb00000240000482420053
:1042e8004322dd0005a020000502420014f0a100d1
:1042f800e0cf500004003a00000040002594200060
:1043080084327800030037000000400085942000c4
:104318008432780014e0a1006402420014e0a00096
:1043280000000600a549800084c0b300e78f520052
:104338000e003e00a4498000459520009542780073
:10434800e0cf520003003a0010c0b30054e9b700b0
:10435800060037004595200095427800e1cf5200cd
:1043680002003a0020c0b30054e9b7000480fb0003
:104378003429b500454a8000844a7800c596200053
:10438800b54a88003209ab0003003200e04f520002
:104398000b003a0011003700e04f52000f003200c6
:1043a80085498000b64a8000355b7800b64a8800a7
:1043b800854988000442e900f9ff3a000700370000
:1043c80085498000b64a8000355b7800b64a880087
:1043d800854988000442e900f9ff3a000000060018
:1043e800459620009542780004c8b30084cf520057
:1043f80036003a0000ccb30032e9b70074962000ca
:1044080014427800e24f520009003200e34f520094
:104418001b003200e14f52002b003a00240a2a0008
:104428008449880024012000a44988002700370017
:104438006496200014427800e04f52000e003a00c3
:1044480064962000144278000482fb0004024200b3
:1044580045162a00e5027a008549880084498000cb
:104468002440900034e9b70084498000344090002b
:1044780035e9b700150037003269ef00130037003f
:104488006496200014427800e24f52000c003e006f
:1044980064962000144278000482fb000402420063
:1044a80065162a00e5027a0085498800844980005b
:1044b800144278000482fb00a449880003003700f6
:1044c8003269ef00010037003269ef000000060092
:1044d80000c0b3006ce9b7006de9b700449620004e
:1044e800144278007f026200e10f52000b00320094
:1044f800e20f52000b003200e00f520021003a0098
:1045080032e9a8006493200014427800804f5200da
:104518001c0032006c29a8001a00370032e9a800f4
:104528001800370032e9a800849620001442780069
:10453800e04f5200070035008496200014427800ae
:104548006f0262000402420025942000e5027a000e
:104558000600370084962000144278006f0262003b
:104568000402420085942000e5027a0004402800f5
:1045780095026200848f520002003a0010c0b30016
:104588006ce9b70004082000954980000502620024
:10459800e00f520005003200c496200084498800cc
:1045a8003209a80020c0b30034e9b70000000600b3
:1045b800aa24ab0011003200844a80001443900002
:1045c80005c8b300854f53000b003a00454a8000e8
:1045d8001543900045c8b300854f530006003a00c4
:1045e800c5c0b30015429800844a800094429000e8
:1045f8000574a00015429800aa24a9000408200008
:104608005424880000000600881f7800444a80006f
:10461800140478004e44de00614464004849aa004e
:10462800c4498000e80f52000c003a00649620004c
:1046380014427800f407b200b4248800b42480003f
:10464800e00f52000300320004012000c449880032
:104658000200370044002000c44988005495200017
:1046680014427800e14f520022003a00c59620001b
:10467800444a8000150298002aff0700449520004c
:1046880014427800e24f520008003a0045c0b300d7
:10469800444a800015429800444a800094429000a1
:1046a8000574a0001542980028003700e04f540018
:1046b80008003a0085c4b300444a800015429800b7
:1046c800444a8000944290000574a0001542980066
:1046d8001e00370085c0b300444a80001542980088
:1046e800444a8000944290000574a0001542980046
:1046f80016003700d493200014427800e04f52008f
:1047080011003d0005942000954278008582fb0049
:1047180014942000144278004822dd00050272003b
:104728000800320005942000954278008582fb003d
:1047380014942000144278004822dd00050272001b
:10474800040001003de9a9005569ef004f04780015
:10475800000006003769ef000001eb008000eb0065
:1047680040072000030607008284a90004012000f6
:1047780004248800000006008284a80004012000a8
:104788005424880010c0b30037e9b7000001eb00db
:104798008000eb0050072000f60507000000060027
:1047a8000200fa00881f78006496200014427800fe
:1047b800e14f52000d003a00449620001442780060
:1047c8007f42620009003a0032e9a80054962000ae
:1047d80014427800e34f520003003a0010c0b300bf
:1047e80036e9b700010037003669ef00649620000b
:1047f80014427800e04f5200ad003a004496200081
:10480800144278007f426200e24f5200a8003a004a
:1048180084962000144278006f426200a40032009f
:1048280084962000144278006f026200e20f520062
:104838009f003c00c549800004022000848f52007c
:104848009b003a0032e9a8008496200014427800c0
:10485800e04f52000d003500849620001442780085
:104868006f0262000402420025942000e5027a00eb
:10487800e5bf9f0084962000144278006f02620012
:10488800e595200065447a000c00370084962000e6
:10489800144278006f0262000402420085942000ee
:1048a800e5027a00e5bf9f00849620001442780054
:1048b8006f026200b595200065447a006142640089
:1048c80004003a004ffa97000424a100c4ff9f0097
:1048d80003003700cffa97000524a000c5ff9f000a
:1048e8008496200014427800e04f520008003500fa
:1048f80084962000144278006f026200040242008d
:10490800259420006fbb970086327a000700370095
:1049180084962000144278006f026200040242006c
:10492800859420006fb8970080327a005496200052
:1049380014427800e34f52001d003a006fba970006
:104948008002eb00948f120013003d008496200033
:1049580014427800e04f5200080035008596200088
:1049680095427800ef826200e695200066c27a00e0
:104978000410a00004f37a00070037008596200091
:1049880095427800ef826200b695200066c27a00f0
:104998000410a00004f37a006fba97001443900043
:1049a80045c8b3008542730015429800400037009f
:1049b8004ffb97000624a200c6ff9f00efb89700a0
:1049c8000000eb00910f100008003d00114290001c
:1049d8000474a1000464a000944098002200200000
:1049e80050002000630507000300370011429000c3
:1049f8000464a000944098004ffa97000424a20091
:104a0800c4ff9f006244640004003a006fba970034
:104a18008002eb00948f12001b003d00849620005a
:104a280014427800e04f52000800350085962000b7
:104a380095427800ef826200e695200066c27a000f
:104a48000410a10004f37a000700370085962000bf
:104a580095427800ef826200b695200066c27a001f
:104a68000410a10004f37a00efb8970011429000f7
:104a7800b443b20094409800220020005000200067
:104a88003c0507000300370094429000b543b2008c
:104a98001542980084962000144278006f02620044
:104aa80004024200a54a2000050242001414a10095
:104ab8004f0478000080fa0000000600881f780084
:104ac80032e9a800ac24ef00ae24ef0008a02000d3
:104ad800020320008000eb000800780090fd07002a
:104ae8009424a80000c0b3005be9b7005ee9b700f2
:104af8005ce9b7005fe9b7005de9b70060e9b700b6
:104b0800220020008000eb00e094200084fd0700d4
:104b18009424a90068024400444a8800884a88000e
:104b2800984a880066c9bf003ae9b700a4932000f4
:104b380014427800e04f520003003a0004012000bc
:104b4800c44988000600370012002000a193200005
:104b5800100020000705070004022000c44988004f
:104b68004f047800000006004496200014427800a4
:104b78000446b2003f003a005496200014427800e0
:104b88000482fb0005002000eb0f5200e08f5a0062
:104b980038003e00046001001a0037001b0037008f
:104ba800340037001900370032003700060037009c
:104bb800090037002b0037000b00370008003700ca
:104bc800140037001e00370032e9a80084002000d6
:104bd800c44988002700370001fe07002500370078
:104be800b6ff070023003700a493200084498800fb
:104bf8003209a80010c0b30034e9b70032e9a800b0
:104c08001c00370032fe07001a003700e4fe0700d8
:104c18001800370085962000954278008582fb00b1
:104c2800e494200004824200844988003209a800e4
:104c380010c0b30034e9b70032e9a8000d0037000e
:104c480032e9a80084962000144278000482fb0010
:104c5800e5942000669620001643780086727a0054
:104c6800040037000001eb008000eb00200020006a
:104c7800c0040700000006009ec0a9000082eb00e7
:104c880074248800542488000002eb00542588000e
:104c9800ac24ef00ae24ef00250020003525880065
:104ca800442588008644a900f50920008524880049
:104cb800652488008804a80005a02000c82ade0012
:104cc800c524880000a020006033b800c222dd009f
:104cd80085024000868abe000402e800ec0f5200fc
:104ce800faff3a009424a8009624ef0094a4a9009f
:104cf8009424a9008a64ab000e00320086002000cc
:104d08000042eb00562488000440780032e9b700de
:104d18003de9b700e5932000954278003ee9b700e9
:104d2800f5932000954278003fe9b7008a64ab000c
:104d3800f4ff3a0010c0b30062e9b70063e9b700b6
:104d48000042eb00044078002ee9b7002ce9b700d8
:104d580037e9b7008002eb00154a88005be9b70025
:104d68005ee9b700554a8800254a88005ce9b70023
:104d78005fe9b700654a8800354a88005de9b700f1
:104d880060e9b70086a02000464a8800d6002000c7
:104d980056258800469620001650880080c0b3002b
:104da80000eab70040c0b30001eab70001eaa80072
:104db800044078003ae9b700c549880000000600b9
:104dc800889fbe008a1f78008044780001447800dc
:104dd8000885fb0068026500030032008040eb0094
:104de800094078003afd07006405650003003200b9
:104df80011c0b3000940780035fd07008984fb0025
:104e080089844400a44a200008f27c004f057800f9
:104e18004f04be0000000600e0cf5000050032003d
:104e28000082fb00040242008594200065027a009b
:104e3800040037000082fb00040242002594200091
:104e480065027a008002eb00850f52001a003200da
:104e580012029800034a7800944290000544b20078
:104e680015429800944290000534a000154298001d
:104e7800944290000574a00015429800e0cf5000bd
:104e8800070032000080fb000000400085942000ed
:104e9800050040001024a2008402780006003700b4
:104ea8000080fb0000004000259420000500400021
:104eb8001024a20084027800050078000000060093
:104ec800e04f500015003a0085c0b300944a8000b6
:104ed800054a7800944a80004596200015029800fb
:104ee800c5c0b30015429800944a8000144390004e
:104ef80005c8b300054373001642980046c0b300c6
:104f0800444a800016429800444a800014439000a6
:104f18008542730015429800100037000182fb009b
:104f28000080fb0000004000000242004322dd0038
:104f380006a02000860342001740900045c8b30031
:104f48000540700090439800640242000602420047
:104f58001443900085427300154298000000060033
:104f6800889fbe0004022000a5248000050262007c
:104f7800e00f5200180032000080fb0000004000e3
:104f880084942000640378001604be000204200004
:104f9800030020000804610009002000088bbe00ff
:104fa800640378001604be00021b6c0003936c00b7
:104fb800040340001624a20064037800964390007e
:104fc8000744b20017439800640278001443900025
:104fd80082426b00154298004f04be000000060094
:104fe8000002eb00a424880064248800c4498800d7
:104ff80000000600c4498000e00f520011003a008a
:10500800a424880064248800250020003525880011
:10501800442588008644a900f409200084248800d7
:10502800642488009ec0a8009404ab0003003a00e2
:105038009404a8009404ab00fdff32001400200083
:10504800c449880000000600249620001442780015
:10505800e04f52002e003a0010c0b30062e9b700da
:105068003496200014427800e04f520028003a009d
:1050780063e9b7005495200014427800e24f5200cb
:105088000a003a00444a8000004aeb0085c4b30095
:10509800444a800015429800444a80009442900097
:1050a8000574a00015429800190037005495200097
:1050b80014427800e14f520015003a005a69ef0097
:1050c80084c0b300854a8000844a7800854a8000fd
:1050d800469620009602980047c0b3009742980071
:1050e800874a80001740900005c8b300054070004b
:1050f8009043980010c0b3005ae9b700974a80005f
:10510800844b7800944a8000160298001542980053
:1051180000000600844a800094437800e59320004c
:10512800954278008582fb00f493200014427800b1
:105138004822dd00050272008782fb00848f52003e
:1051480004003600e793200097437800f49320008a
:1051580014427800e5932000954278008582fb0090
:10516800f4932000144278004822dd000502720002
:105178008782fb0005025200e593200095427800e3
:10518800044078003ee9b7004822de00f59320008d
:1051980095427800044078003fe9b700e0cf53001b
:1051a800160032008002eb00b69320001643780008
:1051b8000683fb00c4932000144278004822dd00d7
:1051c80006027200c696200066da7a00b6932000be
:1051d80016437800044078003be9b7004822de0017
:1051e800c693200016437800044078003ce9b700d5
:1051f8008502e80085cf5300ebff3e00e5932000d1
:10520800954278008582fb00f493200014427800d0
:105218004822dd00050272001800320085c0b30084
:10522800944a8000054a7800944a8000c596200078
:105238001502980005002400864a800096826200c4
:1052480007003a0085c4b30015429800944a8000cc
:10525800944290000574a000154298002900370078
:1052680085c0b30015429800944a8000944290008b
:105278000574a000154298002200370085c0b300cd
:10528800944a8000054a7800944a80004596200098
:105298001502980045c0b30015429800944a800052
:1052a800944290000574a0001542980005942000cf
:1052b800954278008582fb001494200014427800ff
:1052c8004822dd0005027200080032000594200023
:1052d800954278008582fb001494200014427800df
:1052e8004822dd0005027200040001003de9a90022
:1052f800d492200014427800e04f520001003a0096
:1053080051ff070000000600549520001442780061
:10531800e24f520002003a007eff070013003700f8
:105328005569ef00a495200014427800e04f520020
:105338000d003a0085c0b300944a8000054a780001
:10534800944a80004596200015029800c5c0b30015
:1053580015429800944a8000944290000574a00079
:1053680015429800010037005a69ef000000060056
:1053780000c0b3002ee9b7002ce9b700549520000f
:1053880014427800e24f52000d003a0085c0b30085
:10539800944a8000054a7800944a8000c596200007
:1053a8001502980085c4b30015429800944a8000fd
:1053b800944290000574a000154298001c00370024
:1053c800a4962000144278000482fb00b5962000c1
:1053d80095427800c82add0084827200a4498000c2
:1053e800848f520008003100a5962000954278006d
:1053f8008582fb00b4962000144278004822dd0024
:1054080005027200a4498800c6fb0700444a8000d0
:10541800c59620001502980085c4b300154298006f
:10542800444a8000944290000574a00015429800f8
:105438000000060094a4a9000408200090498000f8
:1054480000026200e00f520024003a00d4932000ca
:1054580014427800e04f52000b003d0020c0b3001a
:1054680055e9b700c492200014427800e04f52007a
:1054780001003a00beff070000c0b30063e9b700af
:1054880062e9b7003f00370085c0b300944a800046
:10549800054a7800944a8000459620001502980035
:1054a800c5c0b30015429800944a80001443900088
:1054b80005c8b300054373001642980046c0b30000
:1054c800444a800016429800444a800014439000e1
:1054d80085427300154298002a0037004496200040
:1054e80014427800e04f520010003d0010c0b30095
:1054f80055e9b700e492200014427800e04f5200ca
:1055080001003a009aff070000c0b30063e9b70042
:1055180062e9b700d492200014427800804f52000c
:1055280018003a00c8fe07001600370020c0b30074
:1055380055e9b70085c0b300944a8000054a780051
:10554800944a8000459620001502980045c0b30093
:1055580015429800944a8000944290000574a00077
:105568001542980000c0b30063e9b70062e9b700cc
:10557800d492200014427800804f520001003a0073
:10558800b1fe070000000600881f780000c0b300c5
:1055980054e9b7002de9b7002ee9b7002ce9b700a8
:1055a8005ae9b70055e9b700454a8000154390000d
:1055b8000674a10096429800859420001524a20044
:1055c800464a8000964390000774a100174398004c
:1055d8001524a200954a8000154390000674a10086
:1055e8009642980032e9b7000004eb00a849880009
:1055f8003de9b700e5932000954278003ee9b70001
:10560800f5932000954278003fe9b70056fd070062
:105618000801780088007800300020005502070053
:1056280084ff07004f04780000000600d0c2b300d2
:1056380061e9b7008495200014427800b40fb200e5
:1056480025003a0058c9bf000080fb00c200de00f8
:10565800420add0006a0200086024200854a880032
:10566800954a8800854378000724a20007407800ff
:1056780052e9b70066037a0004c0230004036300fc
:1056880004402300840f530011003a000002eb008d
:1056980095039000469620009743780007737a0098
:1056a800150390000603e800960298000402e8003b
:1056b800e80f5200f6ff3a004208dd0024a020005f
:1056c8004596200005327800afff07000800370034
:1056d8000dff07000600370084952000144278006b
:1056e800b40fb200e80f520001003a00c6fb0700f1
:1056f80000000600889fbe008a1f7800c449800009
:10570800e10f52000a003a0004042000a02480009f
:1057180000026200e00f520005003a008aa4ef0080
:105728008c04a8008c84a80024002000c4498800a8
:105738008084ab00050032008284ab000300320095
:10574800040120000424880002fc07008824ab0020
:10575800020032008ec0a9007d0037008a04ab0029
:10576800080032008c04ab000600320042fd07003e
:105778009ec0a80044002000c449880014002000ee
:10578800542488008a84ab00050032008c84ab0066
:1057980003003200f8fb07000401200054248800ad
:1057a8008a44ab00120032008c44ab000400320083
:1057b800120020008000eb0030072000ed010700f8
:1057c80044002000542488001496200014427800d5
:1057d800e04f5200010032006169ed00149620008c
:1057e80014427800e04f520001003a0016fe07000c
:1057f800040820005524800005026200e00f5200d2
:1058080006003200040820006024800000026200c4
:10581800e00f52000100320065fb07008a24ab004c
:10582800090032008c24ab0007003200120020006f
:105838008000eb00f0ff2700ce0107008ea4ef00e8
:105848002400200054248800c4498000e30f52003b
:1058580002003e008ec0a9003d0037008c64ab00fa
:105868003a003200542480006802620048c0b30045
:105878008a002000e9cfb30003003a003300370064
:105888008a64ab0031003200942480000440780020
:1058980058e9b70084952000144278000482fb0080
:1058a8004422de000440780059e9b7005a248800f1
:1058b8008495200014427800684262000c003a0087
:1058c80094952000144278000482fb00e59520009e
:1058d80065437a00614363000604a200e5437a0049
:1058e80089c3630006c3730086727a000b00370011
:1058f80094952000144278000482fb00b59520009e
:1059080065437a00614363000604a200e5437a0018
:1059180089c3630006c3730086727a0094952000d9
:1059280014427800e04f520002003a003fff07009f
:10593800040037000001eb008195200020072000bb
:105948008c0107000844e900cdff3a008ec0a90089
:105958004f0578004f04be00000006004496200062
:10596800144278007f426200e14f520077003a000b
:1059780045962000954278000546b2007f424200d5
:1059880084cf520071003a008496200014427800b7
:10599800e04f520004003200849620001442780040
:1059a800e14f520069003a005496200014427800f2
:1059b8000482fb000500200020022000800f520016
:1059c800e08f5a0061003e000460010022003700a9
:1059d800280037005d0037005c0037005b003700a7
:1059e8005a00370059003700580037005700370071
:1059f8005600370055003700540037005300370071
:105a08005200370051003700500037004f00370070
:105a18004e0037004d0037004c0037004b00370070
:105a28004a00370049003700480037004700370070
:105a38004600370045003700440037004300370070
:105a48004200370041003700400037000d003700a2
:105a58003000370036003700448a20008449880027
:105a680084002000a44988003209a80032e9a8006f
:105a780036003700448a20008449880032e9a800ab
:105a880032003700a4962000144278000482fb00fc
:105a9800b596200095427800c82add0084827200fd
:105aa800e4932000144278000042eb00054078009f
:105ab8003ee9b700c82ade00f693200016437800b6
:105ac800054078003fe9b70005812000b693200023
:105ad80016437800054078003be9b700c82ade0085
:105ae800c693200016437800054078003ce9b700cb
:105af80005942000954278000440780040e9b700fa
:105b0800159420009542780041e9b7003de9a800c6
:105b18000e003700048120008449880074002000aa
:105b2800a449880010ccb30032e9b7000700370059
:105b380064962000144278007596200095427800fb
:105b4800044078009ee8b70032e9a800000006008b
:105b5800881f780000b02400804088001228ef00d9
:105b68000044eb000840780014e8b70015e8b700d7
:105b780080c0b30016e8b7000840780000e8b70016
:105b880051c1b30010c0b3008dfc0700d1c1b300f0
:105b980020c0b3008afc070003c4b300828520003c
:105ba8008840780020c0b3009bfc0700d0448800e0
:105bb8009c28ef000840780001e8b7004f047800ff
:105bc80000000600881f780001047800e50f5000e7
:105bd80012003a00d4448000840f540006003a00b2
:105be80003c4b300828520008040eb0020c0b300ce
:105bf80089fc0700d044880010c0b300e44480004a
:105c0800840f540006003a0000c0b30001e8b70052
:105c180004e8b70010c0b300010037000040eb00f3
:105c28004f04780000000600000278000068ef00ca
:105c3800d5448000e08f5200030032000003eb00df
:105c4800950f13001300350095cf100001003100a7
:105c580095407800e0cf5000080032000040eb008b
:105c68000080fb0085852000657278000048ec0004
:105c780000e8b70080cf5000f9ff3e0003c4b3002e
:105c8800828520008040eb0020c0b30062fc070042
:105c9800d044880000c8bf00000006009ec0a900cc
:105ca8001480200014427800e04f520006003a00a9
:105cb800104088000140780004e8b70010c0b30025
:105cc80005e8b70001e8b7009ec0a800000006007c
:105cd8009ec0a9001480200014427800e04f5200b2
:105ce800060032009ec0a800100037000442e800f9
:105cf800e14f420003003a000500370080027800b7
:105d080014c0b3000043eb00b54f1300f7ff3a008f
:105d1800104088000440780004e8b70010c0b300c1
:105d280005e8b70001e8b7009ec0a800000006001b
:105d38009ec0a9001480200014427800e04f520051
:105d4800060032009ec0a800100037000442e80098
:105d5800e14f420003003a00050037008002780056
:105d680014c0b3000043eb00b54f1300f7ff3a002f
:105d7800104088000440780004e8b7000568ef0088
:105d880010c0b30001e8b7009ec0a80000000600dc
:105d98009ec0a900e4448000e00f520005003200d4
:105da8000000eb00940f100002003d009ec0a80008
:105db8004f0037001480200014427800e34f52004f
:105dc80002003a000168ef0002003700e04f52007d
:105dd80002003a009ec0a80045003700e24f52007a
:105de80009003a008041eb000001eb0011c0b3004c
:105df80020c0b30008fc0700e044880030c0b300ae
:105e080001e8b70039003700e14f520037003a0087
:105e180044802000144278008441780005c4b3000f
:105e2800854f520001003600854178000342520038
:105e38000440780004e8b70084812000c444880046
:105e48005480200014427800e04f520003003200d2
:105e5800e0cf51000c003a0013003700e0cf5100aa
:105e6800110032000342780016408000c5448000cb
:105e7800964a78009828ec000228ec000442e900d1
:105e8800f9ff3a0008003700034278001640800006
:105e9800c5448000964a78009828ec000228ec0057
:105ea8000442e900f9ff3a004480200014427800d7
:105eb800e04f520008003a0004c4b30084cf5100f8
:105ec80003003a0020c0b30001e8b7000200370021
:105ed80030c0b30001e8b7008281200011c0b300d0
:105ee80020c0b300ccfb0700e04488009ec0a80097
:105ef800000006001480200014427800e04f520091
:105f080011003a0001c4b300c08a200046ff070010
:105f1800e04f50000c003200b48a2000b58e2000fb
:105f28008043e9008783fb00c68a2000068343007c
:105f3800d46a7800860f5200fdff3a00804078004e
:105f4800c08e200055ff070091ff070000000600e3
:105f580049fb070027fc0700c4498000ff0f5200d7
:105f6800fdff36008824ab00fbff3a00e1ff070085
:105f7800f9ff3700e10f500003003200e30f500033
:105f880004003a0002003700f1fe07000100370064
:105f980072fe070010c0b300000006003600f800cb
:105fa800809fbe00829fbe00849fbe00869fbe0069
:105fb8003400f80000002000a0018800cdfd070093
:105fc8003400f9004f03be004f02be004f01be006f
:0c5fd8004f00be003600f900004006003b
:020000040000fa
:105fe4002c0900004800000000000000000a000026
:105ff400300000000000000000080000ac000000b9
:1060040000000000ac080000800000000000000058
:046014000000000088
:020000040000fa
:086018000040da000000fe0068
:020000040000fa
:020000040005f5
:0457f400ffff0000b3
:020000040000fa
:020000040005f5
:0457f8009e230000ec
:020000040000fa
:020000040005f5
:0457fc007f3e0000ec
:00000001FF
